:0400000081EF33F069
:10666600016E9EA8FED701C0ADFF1200036E000E9C
:10667600026E3A0E036005D02F0E036402D0010E9F
:10668600026E02C001F00130120067E6096A85AEAB
:1066960067BB72F36E3C3AF54FA57F520E518C687C
:1066A600059BABD9831F19CDE05B01500302F3CFE5
:1066B60005F0F4CF06F001500402F350062602500E
:1066C6000302F350062605C001F006C002F01200D0
:1066D60001C007F002C008F008D007C0D9FF08C003
:1066E600DAFF03C0DFFF074A082A0506D8A0060618
:1066F6000528F3E10628D8B41200EFD7900EF66EFF
:10670600660EF76E000EF86E00EE40F010EE20F00A
:106716000900F5CFEEFFE550E150FAE102EE87F011
:10672600410EEE6AE806FDE1000EF86E000117EF75
:1067360035F003C009F004C00AF001C007F002C03A
:1067460008F011D009C0F6FF0AC0F7FF0800F5CF20
:106756000BF0094A0A2A07C0D9FF08C0DAFF0BC0A6
:10676600DFFF074A082A0506D8A006060528EAE13B
:106776000628D8B41200E6D7000E246E000E236E4B
:10678600245020E1200E235CD8B012001EC008F071
:106796001FC009F0F90E0A6E7F0E0B6E23502024DF
:1067A600D96E24502120DA6EDF50226E22500C6EF4
:1067B6000D6A9EEC38F008501E2609501F22234A07
:1067C600242ADED7120014D002C0F6FF03C0F7FF5A
:1067D600F86A070EF76403D00800F55005D0F6CF27
:1067E600E1FFF7CFE2FFE75033EC33F0024A032A2A
:1067F60002C0F6FF03C0F7FFF86A070EF76403D07E
:106806000800F55005D0F6CFE1FFF7CFE2FFE750DD
:106816000009D8B41200D8D7000E066E000E056E19
:1068260003500410D8B41CD0010E076E04D0D890C3
:1068360003360436072A04AEFAD7D890053606364C
:106846000350015C04500258D8A005D00350015EE5
:106856000450025A0580D89004320332072EEDD731
:1068660005C001F006C002F0120001C0D9FF02C047
:10687600DAFF03C0DEFF04C0DDFF20EE02F00150A8
:10688600D9260250DA2205C0DEFF06C0DDFF20EE63
:1068960004F00150D9260250DA2205C0DEFF06C0F8
:1068A600DDFF20EE06F00150D9260250DA22000E56
:1068B600DE6E000EDD6E20EE08F00150D926025085
:1068C600DA22000EDE6E000EDD6E120005500008A4
:1068D600076E200E072601C008F002C009F003C0AB
:1068E6000AF004C00BF0072A05D0D89008360936FE
:1068F6000A360B36072EF9D7055001C00CF002C038
:106906000DF003C00EF004C00FF0E82A05D0D890B1
:106916000F320E320D320C32E82EF9D708500C1019
:10692600016E09500D10026E0A500E10036E0B50C8
:106936000F10046E1200000E126E8E0E116E0CAE4B
:1069460011D00C1E0B1E0A1E096C000E0A220B2209
:106956000C22010E126E06D0D8900C320B320A327F
:106966000932112A000E09140D6E000E0A140E6E5D
:10697600000E0B140F6EFF0E0C14106E0D500E1041
:106986000F101010D8A4E8D709C001F00AC002F011
:106996000BC003F011C004F012C005F062EC35F034
:1069A60001C009F002C00AF003C00BF01200949C6B
:1069B600948E2EC009F02FC00AF030C00BF031C003
:1069C6000CF09EEC34F009C016F00AC017F00BC0AC
:1069D60018F0240E136EF40E146E470E156EB9ECF5
:1069E60035F013C022F014C023F015C024F0000EB9
:1069F600256E800E266EBF0E276EA6EC36F022C0E0
:106A060032F023C033F024C034F032C001F033C07A
:106A160002F034C003F02CEC36F00150AF6E200EBD
:106A2600AC6E800EAB6E1200000E0201826F000E7D
:106A3600816F000E846F000E836F22EE87F012EED8
:106A460020F0400EDBCFE3FFE806FCE2BF0E856FC9
:106A56007F0E866F800E2E6E250E2F6E000E306E08
:106A6600000E316EDAEC34F0610E1A6E020E1B6EF9
:106A760085C21CF086C21DF0000E1F6E100E1E6E23
:106A8600C2EC39F0200E1E6E020E1F6E610E206ED5
:106A9600020E216EBFEC33F0E00E026E7F0E036E27
:106AA600E6EC33F0200E026E020E036EE6EC33F0D7
:106AB600EE0E026E7F0E036EE6EC33F0D5D7045071
:106AC600D8B405D0015002100310D8A40CD0000E83
:106AD600016E000E026E000E036E1200042AD8909C
:106AE600033202320132000E0114066E000E021449
:106AF600076EFE0E0314086E065007100810D8B471
:106B06000CD0ECD7042A010E0126000E0222000E3C
:106B16000322D890033202320132000E0114066EAF
:106B2600000E0214076EFF0E0314086E06500710BF
:106B36000810D8B406D0E6D70406D8900136023637
:106B4600033602BE03D0020E0460F6D704A0029EEE
:106B5600D8900432045003120550D8A4038E01C005
:106B660001F002C002F003C003F0120015C019F0D4
:106B76001A6A1B6A1434193601E31A801950206EFA
:106B86002050D8A407D0000E136E000E146E000E0F
:106B9600156E120018C019F01A6A1B6A17341936D6
:106BA60001E31A801950216E2150D8A407D0000E97
:106BB600136E000E146E000E156E1200000E1D6E82
:106BC600000E1E6E000E1F6E2150890F205E15C02E
:106BD60021F01850211A800E2116148EFF0E13165E
:106BE600FF0E1416000E1516178EFF0E1616FF0E44
:106BF6001716000E1816180E1C6ED8901D361E3667
:106C06001F361650135C1750145818501558D8A034
:106C160007D01650135E1750145A1850155A1D8077
:106C2600D8901336143615361C2EE7D71DC001F042
:106C36001EC002F01FC003F020C004F021C005F002
:106C460062EC35F001C013F002C014F003C015F079
:106C5600120003C005F0066A076A0234053601E32E
:106C6600068005500F6E0F50D8A409D0000E016E95
:106C7600000E026E000E036E000E046E1200170E5A
:106C8600056E01C006F002C007F003C008F0052833
:106C9600096E04D0D890083207320632092EFAD788
:106CA60006500A6E028EFF0E0116FF0E0216000E29
:106CB600031601500B6E02500C6E03500D6E0E6AD9
:106CC6008E0E0F5E0FAE16D00F50800A8F0FD8B003
:106CD60009D0000E016E000E026E000E036E000E4D
:106CE600046E1200D8900E320D320C320B320F3E6B
:106CF600F9D715D0170E0F640FD0000E016E000ED7
:106D0600026E000E036E000E046E1200D8900B3653
:106D16000C360D360E360F060F50D8A4F7D70A508C
:106D2600D8B408D00E1E0D1E0C1E0B6C000E0C22C5
:106D36000D220E220BC001F00CC002F00DC003F0B4
:106D46000EC004F0120024C028F0296A2A6A2334EF
:106D5600283601E3298028502D6E27C028F0296A9D
:106D66002A6A2634283601E3298028502C6E2D50B5
:106D7600D8B40BD02C502D5CD8B00ED02D500008B6
:106D86002C24286E180E286407D025C022F026C0B1
:106D960023F027C024F012002C50D8B40BD02D506D
:106DA6002C5CD8B00ED02C5000082D24286E180E5E
:106DB600286407D022C022F023C023F024C024F088
:106DC6001200060E2B6E24BE2B8E27BE2B8C238E16
:106DD600FF0E2216FF0E2316000E2416268EFF0E19
:106DE6002516FF0E2616000E27162C502D5CD8B041
:106DF6001BD0D8902536263627362C062D502C1833
:106E0600D8B40DD02B062BC028F0070E2816D8B400
:106E160006D0EFD7D8902432233222322D2A2C5096
:106E26002D18D8B41FD0F6D72D502C5CD8B01AD058
:106E3600D8902236233624362D062D502C18D8B459
:106E46000DD02B062BC028F0070E2816D8B406D076
:106E5600EFD7D8902732263225322C2A2C502D18DF
:106E6600D8A4F7D72BAE0CD0FF0E221AFF0E231A8A
:106E7600FF0E241A010E2226000E2322000E2422C3
:106E86002BAC0CD0FF0E251AFF0E261AFF0E271A62
:106E9600010E2526000E2622000E2722000E2B6E3E
:106EA60022502526235026222450272227AE0ED0F4
:106EB600FF0E251AFF0E261AFF0E271A010E25268B
:106EC600000E2622000E2722010E2B6E25C001F091
:106ED60026C002F027C003F02DC004F02BC005F039
:106EE60062EC35F001C022F002C023F003C024F0AA
:106EF600120020EE08F00E50D9260F50DA22DE508E
:106F0600DE10D8B405D0000E0D6E000E0C6E120009
:106F160020EE02F00E50D9260F50DA22010EDB5079
:106F260004E1400EDE5CD8A029D00CC001F00DC0F3
:106F360002F00EC0D9FF0FC0DAFFDECF03F0DDCFBF
:106F460004F0000E066E400E056E9CEC33F0400E0B
:106F56000EC0D9FF0FC0DAFFDE26000EDD2220EEBE
:106F660002F00E50D9260F50DA22400EDE5E000ED9
:106F7600DD5A000E0D6E010E0C6E12000CC001F0F3
:106F86000DC002F00EC0D9FF0FC0DAFFDECF03F04E
:106F9600DDCF04F020EE02F00E50D9260F50DA2293
:106FA600DECF05F0DDCF06F09CEC33F020EE02F0EC
:106FB6000E50D9260F50DA22DE500C26DD500D2257
:106FC60020EE02F00E50D9260F50DA22DECF10F056
:106FD600DDCF11F0101E111E104A112A400E10248A
:106FE600166E000E1120176E20EE02F00E50D926F6
:106FF6000F50DA22DECF10F0DDCF11F00EC0D9FF30
:107006000FC0DAFF1050DE261150DD2220EE02F00E
:107016000E50D9260F50DA22000EDE6E000EDD6EFF
:1070260020EE06F00E50D9260F50DA22DE50DE1082
:10703600D8A415D00CC0D9FF0DC0DAFF800EDF6EC4
:107046000C4A0D2A1606D8A0170620EE06F00E509A
:10705600D9260F50DA22010EDE6E000EDD6E1750B5
:1070660004E1080E165CD8A053D0F80E1624126E52
:10707600FF0E1720136E20EE04F00E50D9260F5087
:10708600DA22DECF14F0DDCF15F00CC001F00DC012
:1070960002F0000E046E000E036E12C005F013C05F
:1070A60006F06BEC33F012500C2613500D2220EE36
:1070B60007F00C50D9260D50DA221438E842F80BA6
:1070C600DF6E050E106ED89015321432102EFBD7D7
:1070D600000E196E060E186E19BE0FD018500C242D
:1070E600D96E19500D20DA6E14C0DFFF1550146EDC
:1070F600156A1806D8A01906EFD720EE08F00E502C
:10710600D9260F50DA22010EDE6E000EDD6E0ED08D
:107116000CC001F00DC002F0000E046E000E036EEE
:1071260016C005F017C006F06BEC33F0000E0D6EBE
:10713600010E0C6E1200000E176E000E166E0C0E6F
:10714600126E000E136E04D1250E1D18D8B40BD086
:1071560008C0D9FF09C0DAFF1DC0DFFF084A092AA7
:10716600164A172AF5D0000E1C6E000E1B6E000E76
:10717600156E03D015840A4A0B2A0AC0F6FF0BC007
:10718600F7FF0800F550300AD8B4F4D70AC0F6FF66
:107196000BC0F7FF0800F55039EC33F0D8A032D019
:1071A600000E1C6E000E1B6E1BC001F01CC002F010
:1071B600000E046E0A0E036E58EC33F001C01BF08D
:1071C60002C01CF0D00E0E6EFF0E0F6E0AC0F6FF48
:1071D6000BC0F7FF0800F550106E116A0E5010260E
:1071E6000F50112210501B2611501C220A4A0B2A3E
:1071F6000AC0F6FF0BC0F7FF0800F55039EC33F074
:10720600D8B0D2D70AC0F6FF0BC0F7FF0A4A0B2A3E
:107216000800F5CF1DF01D50000AD8B4A5D0780A95
:10722600D8A496D012C0D9FF13C0DAFFDECF18F06B
:10723600DDCF19F0020E1226000E1322010E1D6E6E
:10724600040E1D18D8B412D01D50020DB70EF3242B
:10725600F66E7F0EF420F76E0900F550185C0900F3
:10726600F5501958D8A002D01D2AEAD7800E1DBEA7
:107276007F0E0E6E1B501D5C1C50800A0E58D8B037
:1072860007D01D501B5E000E1DBEFF0E1C5A04D0FB
:10729600000E1C6E000E1B6E15A412D01B501C1087
:1072A600D8B423D008C0D9FF09C0DAFF300EDF6E8C
:1072B600084A092A164A172A1B06D8A01C06EED722
:1072C6001B501C10D8B411D008C0D9FF09C0DAFF72
:1072D600200EDF6E084A092A164A172A1B06D8A06E
:1072E6001C061B501C10D8A4EFD71DC01AF02CD0BA
:1072F60018C001F019C002F01A50020DB70EF3249F
:10730600F66E7F0EF420F76E0900F5CF03F00A0043
:10731600F5CF04F00FEC34F001500F0B146E14503F
:10732600010DCF0EF324F66E7F0EF420F76E0800E3
:10733600F5CF1DF008C0D9FF09C0DAFF1DC0DFFF79
:10734600084A092A164A172A1A061A28D8A4D0D78C
:107356000AC0F6FF0BC0F7FF0A4A0B2A0800F5CF52
:107366001DF01D50D8A4F0D608C0D9FF09C0DAFF19
:10737600000EDF6E16C008F017C009F0120020EEEE
:1073860040F010EEA0F01F0EDBCFE3FFE806FCE2B4
:10739600E20E016E000E026E1CC003F01DC004F06A
:1073A6001EC005F01FC006F038EC34F098EF3EF032
:1073B600600E0001E06F000EE16F000E016E010E1F
:1073C600026E000E046E000E036E010E066E000EB7
:1073D600056E6BEC33F0000E0001ED6F000EEC6FE6
:1073E600EDBF08D0ED5105E1100EEC5DD8B085D0AB
:1073F60001D083D020EE02F0E051D926E151DA2205
:10740600DF50206E20C021F0226A236A246A23C03E
:1074160024F022C023F021C022F0216A20EE01F0E0
:10742600E051D926E151DA22DF50256E25C026F03B
:10743600276A286A296A27C029F026C028F0276A01
:10744600266AE0C0D9FFE1C0DAFFDF502A6E2AC003
:107456002BF02C6A2D6A2E6A2BC02EF02D6A2C6A10
:107466002B6A26502B102F6E27502C10306E28506A
:107476002D10316E29502E10326E21502F10336E82
:1074860022503010346E23503110356E2450321095
:10749600366E20EE03F0E051D926E151DA22DF50B4
:1074A600376E37503310386E3450396E35503A6E69
:1074B60036503B6E000E3C6E010E3D6ED890EC359C
:1074C600D96EED35DA6ED890D936DA363C50D926F3
:1074D6003D50DA2238C0DEFF39C0DEFF3AC0DEFF9B
:1074E6003BC0DEFF040EE027000EE123EC4BED2B44
:1074F600EDBF80D7ED5101E177D7000EED6F100E8D
:10750600EC6FEDBF08D0ED5105E1400EEC5DD8B053
:10751600B1D101D0AFD1C40E206EFF0E216EECC0EA
:1075260022F0EDC023F0D89022362336D8902236AA
:1075360023362050222621502322000E2224D96EE3
:10754600010E2320DA6EDECF24F0DECF25F0DECF6B
:1075560026F0DECF27F0040E05D0D890273226324B
:1075660025322432E82EF9D7C40E286EFF0E296E76
:10757600ECC02AF0EDC02BF0D8902A362B36D890E6
:107586002A362B3628502A2629502B22000E2A244A
:10759600D96E010E2B20DA6EDECF01F0DECF02F0BF
:1075A600DECF03F0DECF04F0000E066E070E056E8A
:1075B60069EC34F001C02CF002C02DF003C02EF0AF
:1075C60004C02FF0C40E306EFF0E316EECC032F0E8
:1075D600EDC033F0D89032363336D8903236333663
:1075E6003050322631503322000E3224D96E010E2D
:1075F6003320DA6EDECF01F0DECF02F0DECF03F00D
:10760600DECF04F0000E066E120E056E69EC34F045
:1076160001502C18346E02502D18356E03502E185A
:10762600366E04502F18376E245034180001C06F80
:1076360025503518C16F26503618C26F2750371897
:10764600C36FF80E206EFF0E216EECC022F0EDC067
:1076560023F0D89022362336D8902236233620506F
:10766600222621502322000E2224D96E010E232029
:10767600DA6EDECF24F0DECF25F0DECF26F0DECFC9
:1076860027F00B0E05D0D890273226322532243229
:10769600E82EF9D7F80E286EFF0E296EECC02AF0F8
:1076A600EDC02BF0D8902A362B36D8902A362B36BA
:1076B60028502A2629502B22000E2A24D96E010E84
:1076C6002B20DA6EDECF01F0DECF02F0DECF03F044
:1076D600DECF04F0000E066E110E056E69EC34F076
:1076E60001C02CF002C02DF003C02EF004C02FF014
:1076F600F80E306EFF0E316EECC032F0EDC033F096
:10770600D89032363336D890323633363050322629
:1077160031503322000E3224D96E010E3320DA6E38
:10772600DECF01F0DECF02F0DECF03F0DECF04F0D5
:10773600000E066E130E056E69EC34F001502C181F
:10774600346E02502D18356E03502E18366E0450C6
:107756002F18376E245034180001C46F2550351881
:10776600C56F26503618C66F27503718C76FE40EF8
:10777600206EFF0E216EECC022F0EDC023F0D890F3
:1077860022362336D8902236233620502226215000
:107796002322000E2224D96E010E2320DA6EDECFBC
:1077A60024F0DECF25F0DECF26F0DECF27F0C00EA8
:1077B600286EFF0E296EECC02AF0EDC02BF0D89093
:1077C6002A362B36D8902A362B3628502A26295088
:1077D6002B22000E2A24D96E010E2B20DA6EDECF64
:1077E6002CF0DECF2DF0DECF2EF0DECF2FF02450A2
:1077F6002C24306E25502D20316E26502E20326ED0
:1078060027502F20336EC0513024346EC1513120A1
:10781600356EC2513220366EC3513320376EC45195
:107826003424386EC5513520396EC65136203A6E2D
:10783600C75137203B6E000E3C6E010E3D6ED89050
:10784600EC35D96EED35DA6ED890D936DA363C504D
:10785600D9263D50DA2238C0DEFF39C0DEFF3AC0F5
:10786600DEFF3BC0DEFFEC4BED2BEDBF54D6ED51FA
:1078760001E14BD6000EED6F000EEC6FEDBF06D0AA
:10788600ED512FE1080EEC5DD8B02BD0A00E206E86
:10789600000E216ED890EC35D96EED35DA6ED890A3
:1078A600D936DA362050D9262150DA22000E226E39
:1078B600020E236ED890EC35E16EED35E26ED8906F
:1078C600E136E2362250E1262350E222DECFE6FF01
:1078D600DECFE6FFDECFE6FFDECFE6FFEC4BED2B9D
:1078E600CDD7000EED6F000EEC6FEDBF08D0ED5159
:1078F60005E1400EEC5DD8B0D9D101D0D7D110C288
:1079060001F011C202F012C203F013C204F0000E1D
:10791600066E060E056E69EC34F001C020F002C05A
:1079260021F003C022F004C023F010C201F011C2FE
:1079360002F012C203F013C204F0000E066E0B0E24
:10794600056E69EC34F001502018246E025021189F
:10795600256E03502218266E04502318276E10C277
:1079660001F011C202F012C203F013C204F0000EBD
:10797600066E190E056E69EC34F0015024180001EC
:10798600C86F02502518C96F03502618CA6F0450D5
:107996002718CB6F10C220F011C221F012C222F0BC
:1079A60013C223F0201E211E221E231E020118517F
:1079B6002014246E19512114256E1A512214266E94
:1079C6001B512314276E14511015286E15511115CD
:1079D600296E165112152A6E175113152B6E245047
:1079E60028180001CC6F25502918CD6F26502A186B
:1079F600CE6F27502B18CF6F000E206E010E216E12
:107A0600D890EC35D96EED35DA6ED890D936DA36AF
:107A16002050D9262150DA22DECF22F0DECF23F005
:107A2600DECF24F0DECF25F0ECC026F0EDC027F047
:107A3600D89026362736D89026362736B70E2624EF
:107A4600F66E7E0E2720F76E0900F5CF28F00900A6
:107A5600F5CF29F00900F5CF2AF00900F5CF2BF074
:107A6600285002011C252C6E29501D212D6E2A50EE
:107A76001E212E6E2B501F212F6E22502C24306E6D
:107A860023502D20316E24502E20326E25502F206B
:107A9600336E0001C8513024346EC9513120356E21
:107AA600CA513220366ECB513320376ECC51342436
:107AB600DC6FCD513520DD6FCE513620DE6FCF51D4
:107AC6003720DF6F00C201F001C202F002C203F0EC
:107AD60003C204F0000E066E020E056E69EC34F069
:107AE60001C020F002C021F003C022F004C023F040
:107AF60000C201F001C202F002C203F003C204F0A8
:107B0600000E066E0D0E056E69EC34F0015020185D
:107B1600246E02502118256E03502218266E04503A
:107B26002318276E00C201F001C202F002C203F060
:107B360003C204F0000E066E160E056E69EC34F0F4
:107B4600015024180001D06F02502518D16F035040
:107B56002618D26F04502718D36F02010851041556
:107B6600206E09510515216E0A510615226E0B511C
:107B76000715236E00510815246E01510915256E4F
:107B860002510A15266E03510B15276E0051041576
:107B9600286E01510515296E025106152A6E0351EC
:107BA60007152B6E245028182C6E255029182D6E7B
:107BB60026502A182E6E27502B182F6E20502C1860
:107BC6000001D46F21502D18D56F22502E18D66F74
:107BD60023502F18D76FD451D025D86FD551D12126
:107BE600D96FD651D221DA6FD751D321DB6F18C2A4
:107BF6001CF219C21DF21AC21EF21BC21FF214C2D7
:107C060018F215C219F216C21AF217C21BF210C2E6
:107C160014F211C215F212C216F213C217F2DC5197
:107C260002010C25106F0001DD5102010D21116FBB
:107C36000001DE5102010E21126F0001DF51020127
:107C46000F21136F08C20CF209C20DF20AC20EF21E
:107C56000BC20FF204C208F205C209F206C20AF20A
:107C660007C20BF200C204F201C205F202C206F21A
:107C760003C207F20001D851DC250201006F0001A2
:107C8600D951DD210201016F0001DA51DE21020125
:107C9600026F0001DB51DF210201036F0001EC4B93
:107CA600ED2BEDBF2CD6ED5101E123D6000EED6F85
:107CB600000EEC6FEDBF06D0ED5137E1080EEC5D1E
:107CC600D8B033D0000E206E020E216ED890EC355F
:107CD600D96EED35DA6ED890D936DA362050D926F7
:107CE6002150DA22DECF22F0DECF23F0DECF24F0E1
:107CF600DECF25F0A00E266E000E276ED890EC354E
:107D0600D96EED35DA6ED890D936DA362650D926C0
:107D16002750DA222250DE262350DE222450DE228D
:107D26002550DE22EC4BED2BC5D7600E0C6E000EF7
:107D36000D6EE20E0E6E000E0F6E7CEC37F00C50E0
:107D46000D10D8A4DBEF39F0000E0001ED6F000E28
:107D5600EC6F000E3F6E000E3E6EEDBF08D0ED518B
:107D660005E1080EEC5DD8B0120001D012003E50BD
:107D76001A24D96E3F501B20DA6EA00E206E000E1C
:107D8600216ED890EC35E16EED35E26ED890E13695
:107D9600E2362050E1262150E222E6CF22F0E6CF5D
:107DA60023F0E6CF24F0E6CF25F0190E05D0D890C3
:107DB6002532243223322232E82EF9D72250DF6EC2
:107DC6003E4A3F2A3E501A24D96E3F501B20DA6E97
:107DD600A00E206E000E216ED890EC35E16EED35CA
:107DE600E26ED890E136E2362050E1262150E222BA
:107DF600E6CF22F0E6CF23F0E6CF24F0E6CF25F05B
:107E0600110E05D0D8902532243223322232E82EA4
:107E1600F9D72250DF6E3E4A3F2A3E501A24D96EC9
:107E26003F501B20DA6EA00E206E000E216ED890F9
:107E3600EC35E16EED35E26ED890E136E236205053
:107E4600E1262150E222E6CF22F0E6CF23F0E6CF6C
:107E560024F0E6CF25F023C022F024C023F025C06D
:107E660024F0256A2250DF6E3E4A3F2AA00E206E7D
:107E7600000E216ED890EC35D96EED35DA6ED890BD
:107E8600D936DA362050D9262150DA223E501A2425
:107E9600E16E3F501B20E26EDFCFE7FF3E4A3F2AEE
:107EA600EC4BED2BEDBF63D7ED5101E15AD7120034
:107EB60000982F8A4291443771CFFBC0B5A5DBB538
:107EC600E95BC25639F111F159A4823F92D55E1C85
:107ED600AB98AA07D8015B8312BE853124C37D0CFB
:107EE60055745DBE72FEB1DE80A706DC9B74F19B05
:107EF600C1C1699BE48647BEEFC69DC10FCCA10CEC
:107F0600246F2CE92DAA84744ADCA9B05CDA88F9BE
:107F16007652513E986DC631A8C82703B0C77F591F
:107F2600BFF30BE0C64791A7D55163CA0667292957
:107F360014850AB72738211B2EFC6D2C4D130D38DE
:107F46005354730A65BB0A6A762EC9C281852C72A0
:107F560092A1E8BFA24B661AA8708B4BC2A3516CC4
:107F6600C719E892D1240699D685350EF470A06A11
:107F76001016C1A419086C371E4C774827B5BCB03B
:107F860034B30C1C394AAAD84E4FCA9C5BF36F2EE9
:107F960068EE828F746F63A5781478C8840802C768
:107FA6008CFAFFBE90EB6C50A4F7A3F9BEF2787181
:107FB600C601001000000100106162636461626323
:107FC60064616263646162636430313233343536CE
:107FD60037383961626364656600486173682053A7
:107FE6007472696E673A200020202020202020200D
:097FF60020200025303278000043
:020000040020DA
:08000000FFFFFFFFFFFFFFFF00
:020000040030CA
:0E000000000C1F1EFF0181FF0FC00FE00F401C
:00000001FF
